:020000040800F2
:10000000C87D0024410400087DD50008BDA8000873
:1000100071D00008F9240008D1FA0008000000009F
:100020000000000000000000000000008103000844
:10003000A92C000800000000DD0300083DE90008CD
:100040005B0400085B0400085B0400085B04000814
:100050005B0400085B0400085B0400085B04000804
:100060005B0400085B0400085B04000865260008C8
:10007000752600088526000895260008A526000894
:10008000B5260008C52600085B0400085B040008CC
:100090005B0400085B0400085B0400085B040008C4
:1000A0005B0400085B0400085B0400085B040008B4
:1000B0004DEB000875EB0008C5EB00085B04000879
:1000C0005B0400085B0400085B0400085B04000894
:1000D0005B04000891FA0008A1FA0008B1FA0008D0
:1000E0005B0400085B040008000000005B040008DB
:1000F0005B0400085B0400085B040008D5260008C8
:100100005B0400085B040008EDEB00085B040008DA
:1001100095EE0008A5EE00085B0400085B040008EB
:10012000E5260008F5260008052700085B040008FE
:100130005B0400085B0400085B0400085B04000823
:1001400000000000000000000000000000000000AF
:100150005B0400085B0400085B040008C1FA0008A7
:100160005B0400085B0400085B0400085B040008F3
:100170005B0400085B0400085B040008000000004A
:100180005B0400085B040008B5EE0008C5EE00083B
:100190005B0400085B0400085B0400085B040008C3
:1001A0005B0400085B0400085B0400085B040008B3
:1001B0005B0400085B0400085B0400085B040008A3
:1001C0005B0400085B0400085B0400085B04000893
:1001D0005B0400085B0400085B0400085B04000883
:1001E0005B0400085B0400085B0400085B04000873
:1001F0005B0400085B0400085B0400085B04000863
:100200005B0400085B0400085B0400085B04000852
:100210005B0400085B0400083DEB00085B04000879
:100220005B0400085B0400085B0400080000000099
:100230005B0400085B040008000000005B04000889
:100240005B0400085B0400085B0400085B04000812
:100250005B0400085B0400085B0400085B04000802
:100260005B0400085B0400085B0400085B040008F2
:100270005B0400085B0400085B0400080000000049
:100280005B0400085B0400085B0400080000000039
:10029000000000005B04000800F002F800F060F8C5
:1002A0000AA090E8000C82448344AAF10107DA45D1
:1002B00001D100F055F8AFF2090EBAE80F0013F0C3
:1002C000010F18BFFB1A43F0010318471048010043
:1002D0003048010010F8013B0A4413F0030408BF42
:1002E00010F8014B1D1108BF10F8015B641E05D00A
:1002F00010F8016B641E01F8016BF9D1002D15D0C7
:1003000010F8014B03F00C030C2BA1EB04040ABF03
:1003100010F8013BA4EB8314A4EB032405F10103C3
:1003200014F8016B5B1E01F8016BF9D5914238BFDF
:1003300010F8013BD1D3704700230024002500268C
:10034000103A28BF78C1FBD8520728BF30C148BF38
:100350000B6070471FB514F0D9FA1FBD10B510BD62
:1003600000F0BAF91146FFF7F5FF12F091FB00F02B
:10037000D8F903B4FFF7F2FF03BC00F0DBF900008B
:100380002C4B19680868B0E8F04F80F30988BFF378
:100390006F8F4FF0000080F311887047000000005D
:1003A00008480068006880F308884FF0000080F378
:1003B000148862B661B6BFF34F8FBFF36F8F00DF53
:1003C00000BF00BF08ED00E0DFF80C00016841F459
:1003D00070010160704700BF88ED00E0EFF3098015
:1003E000BFF36F8F134B1A681EF0100F08BF20ED7C
:1003F000108A20E9F04F106009B44FF0500080F3EC
:100400001188BFF34F8FBFF36F8F13F0FDFE4FF0D6
:10041000000080F3118809BC19680868B0E8F04F43
:100420001EF0100F08BFB0EC108A80F30988BFF3EC
:100430006F8F704740000024EFF305807047000085
:100440000948804709480047FEE7FEE7FEE7FEE768
:10045000FEE7FEE7FEE7FEE7FEE7FEE704480549A4
:10046000054A064B7047000041EA0008990200085F
:10047000C8770024C87D0024C8790024C8790024E6
:1004800053EA020C00F069802DE9F04B4FF00006B2
:10049000002B1FBFB3FA83F503FA05F424FA05F61F
:1004A0005E4012BF1643B2FA82F502FA05F4C5F1B6
:1004B00020051EBF22FA05FC44EA0C04203556EA4A
:1004C000044C4FEA144418BF641C4FF000084FF06E
:1004D0000009904271EB030C39D3002919BFB1FA1E
:1004E00081F701FA07F6B0FA80F700FA07F6C7F1CC
:1004F00020071EBF20FA07FC46EA0C062037B6FB91
:10050000F4FCA7EB0507103F07F01F0BCBF120060B
:100510000CFA0BFB2CFA06F644BFB3460026202F3C
:10052000A4BF5E464FF0000B5BEA060C08BF4FF01D
:10053000010B19EB0B09ABFB027C48EB0608C01B57
:1005400006FB02CC0BFB03CC71EB0C01C1E70B46A5
:10055000024641464846BDE8F08B13B54FF0000017
:100560004FF00001AFF30080BDE81C407047032A44
:1005700040F2308010F0030C00F0158011F8013BC0
:10058000BCF1020F624498BF11F801CB00F8013BA7
:1005900038BF11F8013BA2F1040298BF00F801CB6B
:1005A00038BF00F8013B11F0030300F02580083A42
:1005B000C0F0088051F8043B083A51F804CBA0E899
:1005C0000810F5E7121D5CBF51F8043B40F8043BEE
:1005D000AFF30080D20724BF11F8013B11F801CB23
:1005E00048BF11F8012B24BF00F8013B00F801CBF4
:1005F00048BF00F8012B704710B5203AC0F00B80BF
:10060000B1E81850203AA0E81850B1E81850A0E816
:100610001850BFF4F5AF5FEA027C24BFB1E8185070
:10062000A0E8185044BF18C918C0BDE810405FEAE0
:10063000827C24BF51F8043B40F8043B08BF70475C
:10064000D20728BF31F8023B48BF11F8012B28BF61
:1006500020F8023B48BF00F8012B70474FF0000222
:1006600000B5134694469646203922BFA0E80C50A8
:10067000A0E80C50B1F12001BFF4F7AF090728BF83
:10068000A0E80C5048BF0CC05DF804EB890028BFFF
:1006900040F8042B08BF704748BF20F8022B11F028
:1006A000804F18BF00F8012B7047704770477047A4
:1006B00010B500F009F8006810BD10B5044600F050
:1006C00003F8046010BD00000048704768770024FC
:1006D00000487047687700247546FFF7F9FFAE467B
:1006E00005006946534620F00700854618B020B53E
:1006F000FFF7B4FEBDE820404FF000064FF00007C2
:100700004FF000084FF0000B21F00701AC46ACE8B9
:10071000C009ACE8C009ACE8C009ACE8C0098D4626
:10072000704710B50446AFF300802046BDE8104086
:10073000FFF71FBE01491820ABBEFEE726000200EE
:100740007047000010B53648007808285BD2DFE813
:1007500000F0040E19242E39444F324890F830002E
:10076000012803D130492F4800F068F84BE02D48AC
:1007700090F8A000012804D12C492A48703000F0DC
:100780005DF840E0274890F81001012804D128497D
:100790002448E03000F052F835E0224890F880011B
:1007A000012803D12349244800F048F82BE01D48D4
:1007B00090F86800012804D11B491A48383000F02D
:1007C0003DF820E0174890F8D800012804D11749D7
:1007D0001448A83000F032F815E0124890F84801AB
:1007E000012804D112491448383800F027F80AE0EB
:1007F0000C4890F8B801012804D10E490E48383051
:1008000000F01CF800BF00BF05480078401C0449F8
:10081000087008460078072801DD0020087010BD28
:100820002C1F00240075002400240024BC25002473
:1008300094240024282500245076002470B5044612
:100840000D462088174908866088488694ED030A7B
:10085000DFED150A80EE201A084680ED0D1A94EDA2
:10086000040ADFED110A20EE200A80ED0E0A94ED55
:10087000050ADFED0D0A20EE200A80ED0F0A94ED47
:10088000010A80ED100A94ED020A80ED110A12F0BF
:1008900075F940F6FF7322220249284609F05AFFF3
:1008A00070BD0000D87200249A991141F0EE400A00
:1008B000F5EEC00AF1EE10FA00BFB1EE600A30FEAC
:1008C000800A7047002030EE602AB7EEC22AB0EEF0
:1008D000C22BB7EEC22BF0EE421AF4EEC11AF1EEC3
:1008E00010FA00DB05E0F4EEC11AF1EE10FA00D2C6
:1008F000012070470FB52DED020B2DED028B91B04D
:1009000000201090159803287EDC159800287BDBCA
:100910009FEDFE0A8DED0F0A16982030159900EB19
:100920008100D0ED000A9DED0F0A30EE800A169886
:10093000303000EB8100D0ED000A30EE200A8DED62
:100940000E0A16986030159900EB8100D0ED000A70
:100950009DED0E0A30EE800A8DED0D0A169890304E
:10096000159900EB8100D0ED000A9DED0D0A70EEA7
:10097000800A1698C03000EB810090ED000A30EE3E
:10098000800A8DED0C0A1698F030159900EB810065
:10099000D0ED000A9DED0C0A30EE800A8DED0B0AB9
:1009A000169800F58070159900EB8100D0ED000AD3
:1009B0009DED0B0A30EE800A8DED0A0A9DED130ABB
:1009C000DDED0F0AB4EEE00AF1EE10FA4BD8D04993
:1009D000159801EB801009909DED130ADDED0F0ACB
:1009E00030EE600A8DED080A159800EB400117986B
:1009F000001D00EB810090ED020A8DED070A1598AD
:100A000000EB4001179800E0FEE3001D00EB8100C1
:100A100090ED000A8DED060A159800EB400117983D
:100A2000001D00EB810090ED020A8DED050A15987E
:100A300000EB40011798001D00EB810090ED000ACB
:100A40008DED040A0999DDED082A9DED0F2ADDEDF3
:100A5000071A9DED061ADDED050A9DED040A1598AD
:100A600011F0BEFE80E29DED130ADDED0F0AB4EE3B
:100A7000E00AF1EE10FA7CDD9DED130ADDED0E0AC1
:100A8000B4EEE00AF1EE10FA73D216982030159900
:100A900000EB8100D0ED000A9DED0F0A70EE800A98
:100AA0009DED130AF4EEC00AF1EE10FA73DB16980E
:100AB0001030159900EB810090ED000ADFED950AEA
:100AC00020EE200A8DED070A9DED070A10F09AF935
:100AD000DDE9151000EB8100D0ED000A20EE200AC0
:100AE0008DED090A1698103000EB810090ED000A98
:100AF000DFED880A20EE200A8DED070A9DED070A3A
:100B000010F080F8DDE9151000EB8100D0ED000A4F
:100B100020EE200A8DED080A7D49159801EB801022
:100B200007909DED130ADDED0F0A30EE600A8DEDA2
:100B3000060A16982030159900EB810090ED000A06
:100B40008DED050A01EB41011798001D00EB8100B6
:100B500090ED020A8DED040A159800EB40011798FC
:100B6000001D00EB810090ED000A8DED030A07994E
:100B700000E0BAE0DDED062A9DED052ADDED091A5B
:100B80009DED081ADDED040A9DED030A159811F09C
:100B900027FED8E3FFE716982030159900EB810077
:100BA000D0ED000A9DED0F0A70EE800A9DED130A4C
:100BB000F4EEC00AF1EE10FAEBD216981030159947
:100BC00000EB810090ED000ADFED520A20EE200AD2
:100BD0008DED050A9DED050A10F014F9DDE91510FB
:100BE00000EB8100D0ED000A20EE200A8DED090A0D
:100BF0001698103000EB810090ED000ADFED450AF9
:100C000020EE200A8DED050A9DED050A0FF0FAFF92
:100C1000DDE9151000EB8100D0ED000A20EE200A7E
:100C20008DED080A1698103000EB810090ED000A57
:100C3000DFED380A20EE200A8DED050A9DED050A4C
:100C400010F0E0F8DDE9151000EB8100D0ED000AAE
:100C500020EE200A8DED070A1698103000EB810077
:100C600090ED000ADFED2B0A20EE200A8DED050A3B
:100C70009DED050A0FF0C6FFDDE9151000EB8100C0
:100C8000D0ED000A20EE200A8DED060A9DED130A34
:100C9000DDED0F0A30EE600A1698203000EB81007F
:100CA000D0ED000A30EE600A8DED040A184915985F
:100CB00001EB8010059016983030159900EB8100FB
:100CC00090ED000A8DED030A0599DDED042A9DEDF6
:100CD000032ADDED091A9DED081ADDED070A9DEDE9
:100CE000060A159811F07CFD2DE39DED130ADDED4C
:100CF0000E0AB4EEE00AF1EE10FA7CDD9DED130A67
:100D0000DDED0D0AB4EEE00A06E000000000000090
:100D10006005002439FA8E3CF1EE10FA6BD8159874
:100D2000012802D01598022866D10121084601F059
:100D300013FC0221012001F00FFC16985030159988
:100D400000EB810090ED000A5FED0E0A20EE200A14
:100D50008DED050A9DED050A10F054F81698403007
:100D6000159900EB8100D0ED000A20EE200A8DEDF0
:100D7000090A1698503000EB8100D0ED000A1FEDF3
:100D80001B0A20EE800A8DED050A9DED050A0FF085
:100D900039FF16984030159900EB8100D0ED000A1C
:100DA00020EE200A8DED080A1698103000EB810025
:100DB00090ED000A5FED290A20EE200A8DED050A6C
:100DC0009DED050A10F01EF8DDE9151000EB81001D
:100DD000D0ED000A20EE200A8DED070A169810309B
:100DE00000EB8100D0ED000A1FED360A20EE800AEC
:100DF0008DED050A01E0C2E033E09DED050A0FF03C
:100E000001FFDDE9151000EB8100D0ED000A20EEB6
:100E1000200A8DED060AFD49159801EB801005901A
:100E20009DED130ADDED0E0A30EE600A8DED040A29
:100E300016986030159900EB810090ED000A8DED59
:100E4000030A0599DDED042A9DED032ADDED091A5B
:100E50009DED081ADDED070A9DED060A159811F0C3
:100E6000BFFC159810B1159803287DD100210846C4
:100E700001F072FB0321002001F06EFB1698103088
:100E8000159900EB810090ED000A5FED5E0A20EEFF
:100E9000200A8DED050A9DED050A0FF0B3FFDDE98F
:100EA000151000EB8100D0ED000A20EE200A8DED38
:100EB000090A1698103000EB810090ED000A5FEDF2
:100EC0006B0A20EE200A8DED050A9DED050A0FF054
:100ED00099FEDDE9151000EB8100D0ED000A20EE4F
:100EE000200A8DED080A1698103000EB810090ED75
:100EF000000A5FED780A20EE200A8DED050A9DEDCF
:100F0000050A0FF07FFFDDE9151000EB8100D0ED41
:100F1000000A20EE200A8DED070A1698103000EB2B
:100F2000810090ED000A5FED850A20EE200A8DED2C
:100F3000050A9DED050A0FF065FEDDE9151000EBD1
:100F40008100D0ED000A20EE200A8DED060AAF499F
:100F5000159801EB80100146F7EE002AB7EE002A43
:100F60000590DDED091A00E0CAE19DED081ADDEDFE
:100F7000070A9DED060A159811F032FCE3E19DED9C
:100F8000130ADDED0D0AB4EEE00AF1EE10FAF5DD1C
:100F90009DED130ADDED0C0AB4EEE00AF1EE10FA55
:100FA000ECD81598012802D0159802287ED1169801
:100FB0009030159900EB8100D0ED000A9DED0D0AEF
:100FC00070EE800A9DED130AF4EEC00AF1EE10FAFD
:100FD0006CDB0121084601F0BFFA0221012001F07B
:100FE000BBFA16985030159900EB810090ED000A7D
:100FF0005FEDB80A20EE200A8DED030A9DED030A8D
:101000000FF000FF16984030159900EB8100D0EDED
:10101000000A20EE208A1698803000EB810090EDC7
:10102000000A5FEDC40A20EE200A8DED030A9DED53
:10103000030A0FF0E7FE16987030159900EB810057
:10104000D0ED000A00EE808AF0EE000A88EE200A59
:101050008DED090A1698503000EB810090ED000AE2
:101060005FEDD40A20EE200A8DED030A9DED030A00
:101070000FF0C8FD16984030159900EB8100D0EDB7
:10108000000A20EE208A1698803000EB810090ED57
:10109000000A5FEDE00A20EE200A8DED030A9DEDC7
:1010A000030A0FF0AFFD1698703000E0A4E0159928
:1010B00000EB8100D0ED000A00EE808AF0EE000A1D
:1010C00088EE200A8DED080A1698803000EB81002A
:1010D000D0ED000A1FEDF10A20EE800A8DED030A23
:1010E0009DED030A0FF08EFE16987030159900EBF7
:1010F0008100D0ED000A20EE200A8DED070A169837
:10110000803000EB810090ED000ADFED410A20EE17
:10111000200A8DED030A9DED030A0FF073FD16986A
:101120007030159900EB8100D0ED000A20EE200A06
:101130008DED060A1698503000EB810090ED000A04
:10114000DFED330A20EE200A8DED030A9DED030A40
:101150000FF058FE16984030159900EB8100D0ED45
:10116000000A20EE200A8DED050A1698503000EB9B
:10117000810090ED000ADFED260A20EE200A8DEDB9
:10118000030A9DED030A0FF03DFD169840301599B6
:1011900000EB8100D0ED000A20EE200A8DED040A5C
:1011A0001A49159801EB801003909DED130ADDEDAF
:1011B0000D0A30EE600A8DED020A169890301599EE
:1011C00000EB810090ED000A8DED010A03999DED81
:1011D000024ADDED013A9DED093ADDED082A9FED69
:1011E0000D2ADDED071A9DED061ADDED050A9DEDD0
:1011F000040A159800F0DEFC159810B11598032824
:101200007ED10021084607E0FEE3000060050024CF
:1012100039FA8E3CCDCCCCBD01F09EF903210020E3
:1012200001F09AF916981030159900EB810090EDB5
:10123000000A5FED090A20EE200A8DED050A9DEDFA
:10124000050A0FF0DFFDDDE9151000EB8100D0EDA0
:10125000000A20EE200A8DED090A1698103000EBE6
:10126000810090ED000A5FED160A20EE200A8DED58
:10127000050A9DED050A0FF0C5FCDDE9151000EB30
:101280008100D0ED000A20EE200A8DED080A1698A4
:10129000103000EB810090ED000A5FED230A20EE94
:1012A000200A8DED050A9DED050A0FF0ABFDDDE985
:1012B000151000EB8100D0ED000A20EE200A8DED24
:1012C000070A1698103000EB810090ED000A5FEDE0
:1012D000300A20EE200A8DED050A9DED050A0FF07B
:1012E00091FCDDE9151000EB8100D0ED000A20EE45
:1012F000200A8DED060AF749159801EB801000E0F1
:1013000021E005909DED130ADDED0D0A30EE600A37
:101310008DED040A16989030159900EB810090ED40
:10132000000A8DED030A0599DDED042A9DED032ADF
:10133000DDED091A9DED081ADDED070A9DED060A9F
:10134000159811F04DFA16989030159900EB810020
:10135000D0ED000A9DED0D0A70EE800A9DED130A96
:10136000F4EEC00AF1EE10FA7DD2189890ED010A61
:10137000B7EEC00AB0EEC00BB7EEC00B8DED090A98
:10138000DFEDD50A9DED090A0FF0E4FCDFEDD30A8D
:10139000B4EEE00AF1EE10FA65D8D148007838B919
:1013A0009DED130ACF4880ED000A0120CC4908705A
:1013B0000021084601F0D0F80321002001F0CCF80C
:1013C0001598012802D0159802287CD116988030F3
:1013D000159900EB810090ED000A5FED730A20EE95
:1013E000200A8DED050A9DED050A0FF00BFD1698FC
:1013F0007030159900EB8100D0ED000A20EE200A34
:101400008DED090A1698803000EB810090ED000AFE
:101410005FED810A20EE200A8DED050A9DED050A9B
:101420000FF0F0FB16987030159900EB8100D0EDAD
:10143000000A20EE200A8DED080A1698803000EB95
:10144000810090ED000A5FED8E0A20EE200A8DEDFE
:10145000050A9DED050A0FF0D5FC16987030159918
:1014600000EB810000E0C4E0D0ED000A20EE200A8D
:101470008DED070A1698803000EB810090ED000A90
:101480005FED9D0A20EE200A8DED050A9DED050A0F
:101490000FF0B8FB16987030159900EB8100D0ED75
:1014A000000A20EE200A8DED060A8A49159801EB04
:1014B0008010014605908B48D0ED002A90ED002A5F
:1014C000DDED091A00E008E09DED081ADDED070AE0
:1014D0009DED060A159811F083F9159810B115982D
:1014E00003287DD116981030159900EB810090EDFE
:1014F000000A5FEDB90A20EE200A8DED050A9DED88
:10150000050A0FF07FFCDDE9151000EB8100D0ED3E
:10151000000A20EE200A8DED090A1698103000EB23
:10152000810090ED000A5FEDC60A20EE200A8DEDE5
:10153000050A9DED050A0FF065FBDDE9151000EBCE
:101540008100D0ED000A20EE200A8DED080A1698E1
:10155000103000EB810090ED000A5FEDD30A20EE21
:10156000200A8DED050A9DED050A0FF04BFCDDE923
:10157000151000EB8100D0ED000A20EE200A8DED61
:10158000070A1698103000EB810090ED000A5FED1D
:10159000E00A20EE200A8DED050A9DED050A0FF008
:1015A00031FBDDE9151000EB8100D0ED000A20EEE3
:1015B000200A8DED060A4749159801EB8010014677
:1015C00005904848D0ED002A90ED002ADDED091A7B
:1015D0009DED081ADDED070A9DED060A159800E05D
:1015E00001E011F0FDF83F4890ED000A8DED130A7F
:1015F00042E016989030159900EB8100D0ED000A7A
:101600009DED0D0A70EE800A9DED130AF4EEC00AFE
:10161000F1EE10FA30D2189890ED010AB7EEC00A38
:10162000B0EEC00BB7EEC00B8DED090ADFED2A0A54
:101630009DED090A0FF08EFBDFED280AB4EEE00AFB
:10164000F1EE10FA18DD2648007801280BD19DED47
:10165000130A2448D0ED000A30EE600A80ED000A3B
:1016600002201F4908709DED130A1E48D0ED000AA4
:1016700030EE600A8DED130A16989030159900EB44
:101680008100D0ED000A9DED0D0A70EE800A9DEDFF
:10169000130AF4EEC00AF1EE10FA7CD29DED130AA3
:1016A000DDED0C0AB4EEE00AF1EE10FA73D80C4846
:1016B000007802286FD10021012000F04DFF0321A6
:1016C000012000F049FF08480078E8BB002009909D
:1016D0003CE00000600500240000B4430000B44278
:1016E0006407002460070024650700240998C0B23D
:1016F000089003F005F9099800EB800101EBC000A8
:10170000FE4901EB001090ED150A099800EB40012D
:101710001798001D00EB810080ED000A099800EB8E
:10172000800101EBC000F54901EB001090ED170AB4
:10173000099800EB40011798001D00EB810080ED37
:10174000020A0998401C00E006E009900998032865
:10175000CCDD0120EA4908701698B030159900EBED
:10176000810090ED000ADFEDE70A20EE200A8DED02
:10177000070A9DED070A0FF045FB1698A030159952
:1017800000EB8100D0ED000A20EE200A8DED090A61
:101790001698B03000E05CE000EB810090ED000AAC
:1017A000DFEDD80A20EE200A8DED070A9DED070A2D
:1017B0000FF028FA1698A030159900EB8100D0EDB3
:1017C000000A20EE200A8DED080ACF49159801EB9A
:1017D0008010079016989030159900EB8100D0ED9D
:1017E000000A9DED0D0A70EE800A9DED130A30EEA1
:1017F000600A8DED060A1698C03000EB810090ED6E
:10180000000A8DED050A01EB41011798001D00EB60
:10181000810090ED020A8DED040A159800EB40015D
:101820001798001D00EB810090ED000A8DED030A72
:101830000799DDED062A9DED052ADDED091A9DEDDE
:10184000081ADDED040A9DED030A159810F0C8FF93
:1018500085E19DED130ADDED0C0AB4EEE00AF1EE30
:1018600010FA7CDD9DED130ADDED0B0AB4EEE00A03
:10187000F1EE10FA73D8A548007802286FD11698B7
:10188000B030159900EB810090ED000ADFED9D0A64
:1018900020EE200A8DED030A9DED030A0FF0B2FA47
:1018A0001698A030159900EB8100D0ED000A20EECB
:1018B000208A1698E03000EB810090ED000ADFED01
:1018C000910A20EE200A8DED030A9DED030A0FF028
:1018D00099FA1698D030159900EB8100D0ED000AE6
:1018E00000EE808AF0EE000A88EE200A8DED090AEB
:1018F0001698B03000EB810090ED000ADFED810A10
:1019000020EE200A8DED030A9DED030A0FF07AF90F
:101910001698A030159900EB8100D0ED000A20EE5A
:10192000208A1698E03000EB810090ED000ADFED90
:10193000750A20EE200A8DED030A9DED030A0FF0D3
:1019400061F91698D030159900EB8100D0ED000AAE
:1019500000EE808AF0EE000A88EE200A00E09CE0AB
:101960008DED080A1698E03000EB810090ED000A3A
:10197000DFED640A20EE200A8DED030A9DED030AD7
:101980000FF040FA1698D030159900EB8100D0ED99
:10199000000A20EE200A8DED070A1698E03000EBD1
:1019A000810090ED000ADFED570A20EE200A8DED50
:1019B000030A9DED030A0FF025F91698D03015990A
:1019C00000EB8100D0ED000A20EE200A8DED060A22
:1019D0001698B03000EB810090ED000ADFED490A67
:1019E00020EE200A8DED030A9DED030A0FF00AFA9E
:1019F0001698A030159900EB8100D0ED000A20EE7A
:101A0000200A8DED050A00E0C4E01698B03000EB26
:101A1000810090ED000ADFED3B0A20EE200A8DEDFB
:101A2000030A9DED030A0FF0EDF81698A030159902
:101A300000EB8100D0ED000A20EE200A8DED040AB3
:101A40003149159801EB801003909DED130ADDEDEF
:101A50000C0A30EE600A8DED020A1698F0301599E6
:101A600000EB810090ED000A8DED010A03999DEDD8
:101A7000024ADDED013A9DED093ADDED082A9FEDC0
:101A8000242ADDED071A9DED061ADDED050A9DED10
:101A9000040A159800F08EF861E09DED130ADDED63
:101AA0000B0AB4EEE00AF1EE10FA58DD9DED130AD0
:101AB000DDED0A0AB4EEE00AF1EE10FA4FD8134851
:101AC000007802284BD11698E030159900EB810080
:101AD00090ED000ADFED0B0A20EE200A8DED070ADB
:101AE0009DED070A0FF08EF91698D030159900EB8E
:101AF0008100D0ED000A20EE200A0BE0046B0024E8
:101B00006507002439FA8E3C600500246407002430
:101B1000CDCCCCBD8DED090A1698E03000EB8100EC
:101B200090ED000A5FED090A20EE200A8DED070A0C
:101B30009DED070A0FF066F81698D030159900EB66
:101B40008100D0ED000A20EE200A8DED080A14492C
:101B5000DDED090A9DED080A15980AF031FB9DEDAF
:101B6000130ADDED0A0AB4EEE00AF1EE10FA10DB1A
:101B70000C48007802280CD100210A4801709FED22
:101B80000A0A0A4880ED000A00200949087001206D
:101B9000109000BF109811B0BDEC028B06B000BDD4
:101BA0006006002464070024000000006007002491
:101BB00065070024F0B52DED0A8B83B00446B0EE26
:101BC000408BB0EE419BB0EE42ABB0EE43BBB0EE0B
:101BD00044CA0D46032C7CDC002C7ADB204602F044
:101BE0008FFE0020009001900290B0EE4C4AF0EE83
:101BF0006B3AB0EE4B3AF0EE6A2AB0EE4A2AF0EEBB
:101C0000691AB0EE491AF0EE680AB0EE480A2046AA
:101C100000F06EF88DED000ACDED010A8DED021A8F
:101C200004EB840000EBC4002F4B03EB00122F48A1
:101C3000D0ED010AB0EE600A04EB840000EBC400B2
:101C400003EB001000F16C012346684600F0B4FC81
:101C500004EB840000EBC400234E06EB001000F1FF
:101C60008C0304EB840000EBC40006EB001000F1D1
:101C7000540204EB840000EBC40006EB001000F1FA
:101C80006C0128460BF07CFC04EB840606EBC406D2
:101C9000154F07EB061606F1840304EB840606EBEA
:101CA000C40607EB061606F18C0204EB840606EB6D
:101CB000C40607EB061104EB840606EBC40607EB2B
:101CC00006100DF05BFF04EB840101EBC4013A4602
:101CD00000E004E002EB01100BF09AFF00BF03B03C
:101CE000BDEC0A8BF0BD0000046B0024446E0024A0
:101CF00000B592B00346F0EE404AB0EE605AF0EE06
:101D0000415AB0EE616A00200F90109011900C9033
:101D10000D900E9009900A900B90069007900890F5
:101D2000039004900590009001900290CDED0C4A34
:101D30008DED0E5ACDED095A8DED0B6AF0EE430A8A
:101D4000B0EE620A03AA0CA9184600F083FAF0EE7E
:101D5000430AB0EE620A6A4609A9184600F07AFA08
:101D6000F0EE446AB4EEE34AF1EE10FA01DDF0EE73
:101D7000636ADFED521AF5EEC03AF1EE10FA03D0C5
:101D800086EEA30AF0EE401AB7EE000A30EE610AC2
:101D900020EE000AF7EE000A70EEE10A20EE200ABB
:101DA000DDED030A20EE200AF7EE000A70EEE10AEC
:101DB000B0EE081A60EE810AB7EE001A31EE611A31
:101DC00060EE810A60EEA10A9DED031A00EE810A21
:101DD000F7EE000A70EEE10AB0EE081A60EE810A32
:101DE00060EEA10A60EEA10A9DED001A00EE810AE4
:101DF00061EEA10A60EEA10A9DED001A00EE810AD3
:101E00008DED060A9FED2E0A62EE000A9FED2D1A57
:101E100080EE810AF7EE000A70EEE10AB0EE081AD1
:101E200060EE810AB7EE001A31EE611A60EE810AA7
:101E300060EEA10A20EE200AF7EE000A70EEE10A39
:101E400060EEA00AB7EE001A31EE611A60EE810A68
:101E50009DED051A00EE810ADFED190A22EE201A27
:101E60009FED187AC1EE070AB7EE001A31EE611A3B
:101E7000B0EE087A21EE071A21EE211A21EE211A7E
:101E800001EE200A61EEA10A60EEA10A9DED021AA0
:101E900000EE810A8DED080AF0EE430AB0EE620A08
:101EA00006AA0FA9184600F0EFF99DED0F0ADDED27
:101EB000100A9DED111A12B000BD000000000000D4
:101EC000EC51B83D713D8A3D70B52DED0A8B84B063
:101ED0000446B0EE408BB0EE419BB0EE42ABB0EEAC
:101EE00043BBB0EE44CA032C79DC002C77DB2046E0
:101EF00002F006FD04EB840000EBC4003A4901EB5C
:101F00000010983004EB840101EBC401364A02EB67
:101F100001136C330ECB20300EC0002001900290D4
:101F20000390B0EE4C4AF0EE6B3AB0EE4B3AF0EE66
:101F30006A2AB0EE4A2AF0EE691AB0EE491AF0EEBB
:101F4000680AB0EE480A2046FFF7D2FE8DED010A7E
:101F5000CDED020A8DED031A04EB840000EBC40002
:101F6000214B03EB00122148D0ED010AB0EE600ACC
:101F700004EB840000EBC40003EB001000F16C01E3
:101F8000234601A800F018FB04EB840505EBC4050B
:101F9000154E06EB051505F1A80304EB840505EBCA
:101FA000C40506EB051505F1980204EB840505EB65
:101FB000C40506EB051505F16C0104EB840505EB82
:101FC000C40506EB051000F045FF04EB840101EBAE
:101FD000C401324602EB01100BF0C0FD00BF04B09B
:101FE000BDEC0A8B70BD0000046B0024446E00241D
:101FF000F0B52DED0A8B83B00446B0EE408BB0EE09
:10200000419BB0EE42ABB0EE43BBB0EE44CA0D46CE
:10201000032C7CDC002C7ADB204602F071FC0020D3
:10202000009001900290B0EE4C4AF0EE6B3AB0EEA8
:102030004B3AF0EE6A2AB0EE4A2AF0EE691AB0EE98
:10204000491AF0EE680AB0EE480A2046FFF750FE43
:102050008DED000ACDED010A8DED021A04EB84002E
:1020600000EBC4002F4B03EB00122F48D0ED010A08
:10207000B0EE600A04EB840000EBC40003EB001038
:1020800000F16C012346684600F096FA04EB8400E8
:1020900000EBC400234E06EB001000F18C0304EBB0
:1020A000840000EBC40006EB001000F1540204EBC6
:1020B000840000EBC40006EB001000F16C01284620
:1020C0000BF05EFA04EB840606EBC406154F07EB33
:1020D000061606F1840304EB840606EBC40607EB40
:1020E000061606F18C0204EB840606EBC40607EB29
:1020F000061104EB840606EBC40607EB06100DF090
:102100003DFD04EB840101EBC4013A4600E004E02C
:1021100002EB01100BF07CFD00BF03B0BDEC0A8B9D
:10212000F0BD0000046B0024446E002470B52DED5A
:102130000A8B84B00446B0EE408BB0EE419BB0EE0B
:1021400042ABB0EE43BBB0EE44CA032C79DC002CAA
:1021500077DB204602F0D4FB04EB840000EBC400E4
:102160003A4901EB0010983004EB840101EBC40103
:10217000364A02EB01136C330ECB20300EC0002028
:10218000019002900390B0EE4C4AF0EE6B3AB0EE44
:102190004B3AF0EE6A2AB0EE4A2AF0EE691AB0EE37
:1021A000491AF0EE680AB0EE480A2046FFF7A0FD93
:1021B0008DED010ACDED020A8DED031A04EB8400CA
:1021C00000EBC400214B03EB00122148D0ED010AC3
:1021D000B0EE600A04EB840000EBC40003EB0010D7
:1021E00000F16C01234601A800F0E6F904EB840538
:1021F00005EBC405154E06EB051505F1A80304EB28
:10220000840505EBC40506EB051505F1980204EB02
:10221000840505EBC40506EB051505F16C0104EB1F
:10222000840505EBC40506EB051000F013FE04EB76
:10223000840101EBC401324602EB01100BF08EFC6D
:1022400000BF04B0BDEC0A8B70BD0000046B00241D
:10225000446E002408B1012805D191ED001A31EE39
:10226000401A82ED001A022801D0032805D191ED11
:10227000001A30EE411A82ED001A91ED021A30EE8A
:10228000C11A82ED021A704708B1012805D192EDFA
:10229000001A31EE001A81ED001A022801D003283D
:1022A00005D192ED001A30EE411A81ED001A92ED3F
:1022B000021A30EEC11A81ED021A7047F0B50546D8
:1022C0000E4601242878A5283BD195F87D005A2890
:1022D00037D1002005E02A5D711C0A54611CCCB284
:1022E000401C0128F7DB002709E0281900F05AF903
:1022F000B11C01EB47010880A01CC4B27F1C292F30
:10230000F3DB00270AE0281900F03FF906F1540139
:1023100001EB87010860201DC4B27F1C012FF2DB96
:1023200000270CE0281900F023F910EE100A06F13E
:10233000580101EB87010860201DC4B27F1C092FE2
:10234000F0DBF0BD70B505460C467E222F492846CD
:1023500006F0F2FF2E492068884249D02C491831F6
:102360002068884244D02A493031206888423FD0D2
:1023700027494831206888423AD025496031206891
:10238000884235D0224978312068884230D02049AF
:102390009031206888422BD01D49A831206888429E
:1023A00026D01C492068884222D01A49183120685A
:1023B00088421DD0174930312068884218D015490D
:1023C00048312068884213D0124960312068884221
:1023D0000ED0104978312068884209D00D499031DB
:1023E0002068884204D00B49A8312068884206D171
:1023F0002068006820F008002168086005E0206877
:10240000006820F004002168086070BD0C72002490
:10241000100002401004024070B505460C467E22B2
:102420003149284606F088FF30492068884249D063
:102430002E4918312068884244D02C493031206818
:1024400088423FD029494831206888423AD02749FC
:1024500060312068884235D024497831206888422C
:1024600030D022499031206888422BD01F49A831B2
:102470002068884226D01E492068884222D01C4904
:102480001831206888421DD01949303120688842AF
:1024900018D0174948312068884213D01449603158
:1024A000206888420ED0124978312068884209D0CD
:1024B0000F4990312068884204D00D49A831206826
:1024C000884206D12068006820F008002168086072
:1024D00005E02068006820F00400216808600549D4
:1024E0000148FFF7EBFE70BD0C72002410000240A3
:1024F000100402407D71002400BFFEE701484068DF
:1025000070470000001000E006490968097B81421D
:1025100006D00449096848730121024A12681174FF
:1025200070470000AC0100240149087070470000AA
:102530002C0A0024014981F830007047046B002404
:10254000044981F8310081F8010181F8D10181F855
:10255000A1027047046B002401EB810202EBC1026F
:10256000024B03EB021282F831007047046B002427
:1025700008B5694602780A7042784A7082788A7093
:10258000C278CA709DED000A08BD08B501466A46CA
:10259000087810704878507088789070C878D0703B
:1025A000009808BD08B501466A460878107048785A
:1025B0005070BDF9000008BD2DE9F0412DED028BF2
:1025C00004460D46B0EE408A16461F4696F8310086
:1025D000B0BBDFED220A68EE200AB0EE600A0EF012
:1025E00011FBD4ED000A60EE208ADFED1C0A68EED4
:1025F000200AB0EE600A0EF005FCD4ED020A40EEAF
:10260000808AC5ED008ADFED150A68EE200AB0EE7B
:10261000600A0EF0F7FBD4ED000AF1EE600A60EEFE
:10262000208ADFED0E0A68EE200AB0EE600A0EF096
:10263000E9FAD4ED020A40EE808AC5ED028A08E08C
:10264000FFE794ED000A85ED000A94ED020A85ED9E
:10265000020ABDEC028BBDE8F0810000D93DF93DD6
:102660007047000010B5024802F06AFE10BD00007D
:102670009029002410B5024802F062FE10BD00004F
:10268000082A002410B5024802F05AFE10BD0000CE
:10269000D82C002410B5024802F052FE10BD0000F4
:1026A000502D002410B5024802F04AFE10BD000073
:1026B000802A002410B5024802F042FE10BD00003E
:1026C000F82A002410B5024802F03AFE10BD0000BE
:1026D000E82B002410B5024802F032FE10BD0000C5
:1026E000702B002410B5024802F02AFE10BD000035
:1026F000A028002410B5024802F022FE10BD000000
:102700001829002410B5024802F01AFE10BD00007E
:10271000602C00240146374A0868904249D0354A67
:1027200018320868904244D0324A303208689042E9
:102730003FD0304A4832086890423AD02D4A603241
:102740000868904235D02B4A78320868904230D0E1
:10275000284A9032086890422BD0264AA83208684E
:10276000904226D0244A0868904222D0224A183249
:10277000086890421DD0204A30320868904218D034
:102780001D4A48320868904213D01B4A60320868DC
:1027900090420ED0184A78320868904209D0164A02
:1027A00090320868904204D0134AA83208689042D8
:1027B00001D1012000E00020B0B10A78103A1823BE
:1027C000B2FBF3F000F007020C4B9A5CCA650328D9
:1027D00005D90A686FF30902121D8A6503E00A68C9
:1027E0006FF309028A6503E0086820F0FF0088653E
:1027F000886D70471000024010040240604A0108D2
:1028000010B502682B4C0368A34222D0294C143423
:102810000368A3421DD0274C28340368A34218D074
:10282000244C3C340368A34213D0224C5034036838
:10283000A3420ED01F4C64340368A34209D01D4C40
:1028400078340368A34204D01A4C8C340368A34242
:1028500001D1012300E000238BB10378083B14244D
:10286000B3FBF4F1144B03EB81030366124B80338B
:10287000436601F01F040123A340836618E0037838
:10288000103B1824B3FBF4F10C4B9A4204D80B4BC9
:10289000A83B9A4200D30831094B03EB810303663E
:1028A000074B8033436601F01F040123A340836676
:1028B00010BD00000854025800580258B8040240E5
:1028C000000802400179A9B3082940D8204B0268CA
:1028D0009A4222D01E4B143302689A421DD01C4BE0
:1028E000283302689A4218D0194B3C3302689A4246
:1028F00013D0174B503302689A420ED0144B6433F6
:1029000002689A4209D0124B783302689A4204D086
:102910000F4B8C3302689A4201D1012200E0002261
:102920004AB14A1E0B4B03EB8202C266094A40328F
:10293000026708E00BE04A1E074B03EB8202C26607
:10294000054A403202674A1E01239340436770479D
:10295000085402580059025800090240014600205C
:102960008A69D2B98A6A32B1012A0DD0022A03D00B
:10297000032A10D10EE000BFCA6A02F08072B2F1E1
:10298000807F00D1012007E0CA6AB2F1C07F00D188
:10299000012001E000E000BF36E08A69B2F5005F87
:1029A0001BD18A6A32B1012A07D0022A03D0032A36
:1029B00011D10AE000BF01200EE0CA6A02F0807265
:1029C000B2F1807F00D1012006E0CA6AB2F1C07F77
:1029D00000D1012000E000BF16E08A6A32B1012A6E
:1029E00005D0022A04D0032A0CD103E000BF00BFA7
:1029F000012008E0CA6A02F08072B2F1807F00D143
:102A0000012000E000BF00BF70470000F0B5856DF9
:102A1000846D984F0668BE4270D0964F183706688E
:102A2000BE426BD0934F30370668BE4266D0914F9E
:102A300048370668BE4261D08E4F60370668BE4296
:102A40005CD08C4F78370668BE4257D0894F90379C
:102A50000668BE4252D0874FA8370668BE424DD0A6
:102A6000854F0668BE4249D0834F18370668BE427C
:102A700044D0814F30370668BE423FD07E4F483742
:102A80000668BE423AD07C4F60370668BE4235D0F9
:102A9000794F78370668BE4230D0774F9037066856
:102AA000BE422BD0744FA8370668BE4226D0734F63
:102AB0000668BE4222D0714F14370668BE421DD050
:102AC0006E4F28370668BE4218D06C4F3C370668F8
:102AD000BE4213D0694F50370668BE420ED0674FD2
:102AE00064370668BE4209D0644F78370668BE4234
:102AF00004D0624F8C370668BE4201D1012600E047
:102B000000263EB1D0E919767E60C66E16B1D0E9D6
:102B10001C767E60574F0668BE4249D0554F183725
:102B20000668BE4244D0534F30370668BE423FD09D
:102B3000504F48370668BE423AD04E4F603706685D
:102B4000BE4235D04B4F78370668BE4230D0494F31
:102B500090370668BE422BD0464FA8370668BE4263
:102B600026D0454F0668BE4222D0434F183706682C
:102B7000BE421DD0404F30370668BE4218D03E4F8F
:102B800048370668BE4213D03B4F60370668BE42E6
:102B90000ED0394F78370668BE4209D0364F90378D
:102BA0000668BE4204D0344FA8370668BE4201D141
:102BB000012600E00026DEB190F85C6006F01F07F9
:102BC0003F26BE40AE600668366826F48026076859
:102BD0003E60066873608668402E04D10668B26065
:102BE0000668F16044E00668B1600668F2603FE0A4
:102BF000224F0668BE4222D0204F14370668BE42DC
:102C00001DD01E4F28370668BE4218D01B4F3C37D8
:102C10000668BE4213D0194F50370668BE420ED028
:102C2000164F64370668BE4209D0144F78370668DD
:102C3000BE4204D0114F8C370668BE4201D1012636
:102C400000E00026A6B190F85C6006F01F070126A0
:102C5000BE406660066873608668402E04D10668D0
:102C6000B2600668F16003E00668B1600668F26071
:102C7000F0BD000010000240100402400854025849
:102C80000748006840F08070054908600020054949
:102C900048600846006840F0010008607047000086
:102CA000FCED00E0001000E0704700002DE9F0416D
:102CB0000646B61EFFF7E4FF002705F08FFA10491D
:102CC000B0FBF1F000FB06F800BFFFF717FC05466C
:102CD00011E0FFF713FC0446AC420CD0AC4202D921
:102CE000601B074403E0C5F1FF302044074425463C
:102CF000474500D300E0ECE700BFBDE8F0810000ED
:102D000040420F0070B521480068C07B012838D1CF
:102D10001E480068007C012833D11C480068407BB5
:102D20001A490968097B88422BD018480068057B3E
:102D300016480068447B154909688868804713482D
:102D40000068407B00EB8000114901EB80000F49D7
:102D500008600846006885730846006804730846E2
:102D60000068447300200968C8730849096808743A
:102D70000649096808688047044909684868804727
:102D800003E0024909684868804770BDAC0100242F
:102D9000A800002472B600BFFEE7000000B502469E
:102DA00092ED000A82ED050A02200FF0AFF892EDD5
:102DB000081A30EE410A82ED000A01200FF0A6F851
:102DC00082ED020A00200FF0A1F8F0EE400A9FED1C
:102DD0001E0AF4EEC00AF1EE10FA10D892ED030AC2
:102DE0009FED1A1AB4EEC10AF1EE10FA07DB92ED6C
:102DF000040AB7EE001A30EE010A82ED040A9FEDD4
:102E0000130AF4EEC00AF1EE10FA10DB92ED030A99
:102E10009FED0D1AB4EEC10AF1EE10FA07D892ED4B
:102E2000040AB7EE001A30EE410A82ED040AC2ED40
:102E3000030A92ED041ADFED061AB0EE600A01EE05
:102E4000810A82ED010A00BD00002AC300002A4366
:102E50000000B4432DE9F04106460F4614461D46D6
:102E600022463946304609F023FA2A4621463046A2
:102E700007F026FDBDE8F0810FB52DED020B2DED1D
:102E8000028B91B000201090159803287EDC1598D5
:102E900000287BDB9FEDFE0A8DED0F0A169820308F
:102EA000159900EB8100D0ED000A9DED0F0A30EE80
:102EB000800A1698303000EB8100D0ED000A30EE29
:102EC000200A8DED0E0A16986030159900EB8100EE
:102ED000D0ED000A9DED0E0A30EE800A8DED0D0A50
:102EE00016989030159900EB8100D0ED000A9DED09
:102EF0000D0A70EE800A1698C03000EB810090ED4C
:102F0000000A30EE800A8DED0C0A1698F030159903
:102F100000EB8100D0ED000A9DED0C0A30EE800A36
:102F20008DED0B0A169800F58070159900EB810065
:102F3000D0ED000A9DED0B0A30EE800A8DED0A0AF5
:102F40009DED130ADDED0F0AB4EEE00AF1EE10FA82
:102F50004BD8D049159801EB801009909DED130ACC
:102F6000DDED0F0A30EE600A8DED080A159800EBD2
:102F700040011798001D00EB810090ED020A8DEDD5
:102F8000070A159800EB4001179800E0FDE3001DCB
:102F900000EB810090ED000A8DED060A159800EB1C
:102FA00040011798001D00EB810090ED020A8DEDA5
:102FB000050A159800EB40011798001D00EB8100F1
:102FC00090ED000A8DED040A0999DDED082A9DEDCA
:102FD0000F2ADDED071A9DED061ADDED050A9DEDC0
:102FE000040A15980FF0FCFB80E29DED130ADDED5D
:102FF0000F0AB4EEE00AF1EE10FA7CDD9DED130A43
:10300000DDED0E0AB4EEE00AF1EE10FA73D2169876
:103010002030159900EB8100D0ED000A9DED0F0ADC
:1030200070EE800A9DED130AF4EEC00AF1EE10FA7C
:1030300073DB16981030159900EB810090ED000AB3
:10304000DFED950A20EE200A8DED070A9DED070AB7
:103050000DF0D8FEDDE9151000EB8100D0ED000A7F
:1030600020EE200A8DED090A1698103000EB810041
:10307000D0ED000A9FED880A20EE800A8DED070A48
:103080009DED070A0DF0BEFDDDE9151000EB810096
:10309000D0ED000A20EE200A8DED080A7D49159832
:1030A00001EB801007909DED130ADDED0F0A30EE65
:1030B000600A8DED060A16982030159900EB810004
:1030C00090ED000A8DED050A01EB41011798001DF6
:1030D00000EB810090ED020A8DED040A159800EBDB
:1030E00040011798001D00EB810090ED000A8DED66
:1030F000030A079900E0BAE0DDED062A9DED052AF6
:10310000DDED091A9DED081ADDED040A9DED030AB7
:1031100015980FF065FBF9E3FFE716982030159935
:1031200000EB8100D0ED000A9DED0F0A70EE800AE1
:103130009DED130AF4EEC00AF1EE10FAEBD21698E8
:103140001030159900EB810090ED000ADFED520A76
:1031500020EE200A8DED050A9DED050A0DF052FEC8
:10316000DDE9151000EB8100D0ED000A20EE200A09
:103170008DED090A1698103000EB810090ED000AE1
:10318000DFED450A20EE200A8DED050A9DED050ACA
:103190000DF038FDDDE9151000EB8100D0ED000ADF
:1031A00020EE200A8DED080A1698103000EB810001
:1031B00090ED000ADFED380A20EE200A8DED050AB9
:1031C0009DED050A0DF01EFEDDE9151000EB8100F6
:1031D000D0ED000A20EE200A8DED070A1698103077
:1031E00000EB810090ED000ADFED2B0A20EE200AB3
:1031F0008DED050A9DED050A0DF004FDDDE91510C4
:1032000000EB8100D0ED000A20EE200A8DED060AC9
:103210009DED130ADDED0F0A30EE600A169820309E
:1032200000EB8100D0ED000A30EE600A8DED040A5B
:103230001849159801EB80100590169830301599B3
:1032400000EB810090ED000A8DED030A0599DDED9C
:10325000042A9DED032ADDED091A9DED081ADDED26
:10326000070A9DED060A15980FF0BAFA4EE39DED98
:10327000130ADDED0E0AB4EEE00AF1EE10FA7DDD80
:103280009DED130ADDED0D0AB4EEE00A06E0000044
:10329000000000006005002439FA8E3CF1EE10FABF
:1032A0006CD8159810B11598032868D10021012019
:1032B000FFF752F903210120FFF74EF9169850301D
:1032C000159900EB810090ED000A5FED0D0A20EEEC
:1032D000200A8DED050A9DED050A0DF093FD169867
:1032E0004030159900EB8100D0ED000A20EE200A55
:1032F0008DED090A1698503000EB810090ED000A20
:103300005FED1B0A20EE200A8DED050A9DED050AF2
:103310000DF078FC16984030159900EB8100D0ED47
:10332000000A20EE200A8DED080A1698103000EBF6
:10333000810090ED000A5FED280A20EE200A8DED55
:10334000050A9DED050A0DF05DFDDDE9151000EBA8
:103350008100D0ED000A20EE200A8DED070A1698B4
:10336000103000EB8100D0ED000A1FED350A20EE91
:10337000800A8DED050A9DED050A01E0D1E031E0FE
:103380000DF040FCDDE9151000EB8100D0ED000AE6
:1033900020EE200A8DED060AFC49159801EB8010FD
:1033A00005909DED130ADDED0E0A30EE600A8DEDFD
:1033B000040A16986030159900EB810090ED000A20
:1033C0008DED030A0599DDED042A9DED032ADDED5F
:1033D000091A9DED081ADDED070A9DED060A1598FC
:1033E0000FF0FEF91598012802D0159802287DD11A
:1033F00001210020FFF7B0F802210020FFF7ACF810
:1034000016981030159900EB810090ED000ADFED61
:10341000E00A30EE600A5FED600A20EE200A8DEDD2
:10342000050A9DED050A0DF0EDFCDDE9151000EB38
:103430008100D0ED000A20EE200A8DED090A1698D1
:10344000103000EB810090ED000ADFEDD10A30EE84
:10345000600A5FED6F0A20EE200A8DED050A9DEDF2
:10346000050A0DF0CFFBDDE9151000EB8100D0ED72
:10347000000A20EE200A8DED080A1698103000EBA5
:10348000810090ED000ADFEDC20A30EE600A5FEDC8
:103490007E0A20EE200A8DED050A9DED050A0DF04D
:1034A000B1FCDDE9151000EB8100D0ED000A20EE43
:1034B000200A8DED070A1698103000EB810090ED80
:1034C000000ADFEDB30A30EE600A5FED8D0A20EEF0
:1034D000200A8DED050A9DED050A0DF093FBDDE94F
:1034E000151000EB8100D0ED000A00E0E3E120EED2
:1034F000200A8DED060AA549159801EB80100146BA
:10350000F7EE002AB7EE002A0590DDED091A9DEDD1
:10351000081ADDED070A9DED060A15980FF060F90F
:10352000F4E19DED130ADDED0D0AB4EEE00AF1EED3
:1035300010FAF5DD9DED130ADDED0C0AB4EEE00A9C
:10354000F1EE10FAECD8159810B1159803287DD13A
:1035500016989030159900EB8100D0ED000A9DED92
:103560000D0A70EE800A9DED130AF4EEC00AF1EE2A
:1035700010FA6BDB00210120FEF7EEFF0321012092
:10358000FEF7EAFF16985030159900EB810090ED98
:10359000000A5FEDBF0A20EE200A8DED030A9DEDC3
:1035A000030A0DF02FFC16984030159900EB8100AE
:1035B000D0ED000A20EE208A1698803000EB8100C2
:1035C00090ED000A5FEDCC0A20EE200A8DED030A93
:1035D0009DED030A0DF016FC16987030159900EB5E
:1035E0008100D0ED000A00EE808AF0EE000A88EE3D
:1035F000200A8DED090A1698503000EB810090EDFD
:10360000000A5FEDDB0A20EE200A8DED030A9DED36
:10361000030A0DF0F7FA16984030159900EB810077
:10362000D0ED000A20EE208A1698803000EB810051
:1036300090ED000A5FEDE80A20EE200A8DED030A06
:103640009DED030A0DF0DEFA169800E0AFE0703051
:10365000159900EB8100D0ED000A00EE808AF0EEB3
:10366000000A88EE200A8DED080A1698803000EBDB
:10367000810090ED000A5FEDF80A20EE200A8DED42
:10368000030A9DED030A0DF0BDFB169870301599E5
:1036900000EB8100D0ED000A20EE200A8DED070A34
:1036A0001698803000EB810090ED000ADFED390ABA
:1036B00020EE200A8DED030A9DED030A0DF0A2FA1B
:1036C00016987030159900EB8100D0ED000A20EEBD
:1036D000200A8DED060A1698503000EB810090ED1F
:1036E000000ADFED2C0A20EE200A8DED030A9DED85
:1036F000030A0DF087FB16984030159900EB810006
:10370000D0ED000A20EE200A8DED050A1698503003
:1037100000EB8100D0ED000A9FED1E0A20EE800A2A
:103720008DED030A9DED030A0DF06CFA16984030FA
:10373000159900EB8100D0ED000A20EE200A8DEDF6
:10374000040A1249159801EB801003909DED130AAD
:10375000DDED0D0A30EE600A8DED020A169890300C
:10376000159900EB810090ED000A8DED010A039997
:103770009DED024ADDED013A9DED093ADDED082AA5
:103780009FED052ADDED071A08E0E5E3600500245A
:103790000000344339FA8E3CCDCCCCBD9DED061AE9
:1037A000DDED050A9DED040A1598FEF703FA15985C
:1037B000012802D0159802287DD101210020FEF7B2
:1037C000CBFE02210020FEF7C7FE16981030159997
:1037D00000EB810090ED000A5FED130A30EE600A05
:1037E0005FED140A20EE200A8DED050A9DED050A15
:1037F0000DF008FBDDE9151000EB8100D0ED000AAB
:1038000020EE200A8DED090A1698103000EB810099
:1038100090ED000A5FED220A30EE600A5FED230AA8
:1038200020EE200A8DED050A9DED050A0DF0EAF95E
:10383000DDE9151000EB8100D0ED000A20EE200A32
:103840008DED080A1698103000EB810090ED000A0B
:103850005FED310A30EE600A5FED320A20EE200A99
:103860008DED050A9DED050A0DF0CCFADDE9151088
:1038700000EB8100D0ED000A20EE200A8DED070A52
:103880001698103000EB810090ED000A5FED400AC1
:1038900030EE600A5FED410A20EE200A8DED050A48
:1038A0009DED050A0DF0AEF9DDE9151000EB810084
:1038B000D0ED000A00E029E020EE200A8DED060A96
:1038C000FE49159801EB801005909DED130ADDED82
:1038D0000D0A30EE600A8DED040A169890301599A5
:1038E00000EB810090ED000A8DED030A0599DDEDF6
:1038F000042A9DED032ADDED091A9DED081ADDED80
:10390000070A9DED060A15980EF06AFF169890308A
:10391000159900EB8100D0ED000A9DED0D0A70EEC7
:10392000800A9DED130AF4EEC00AF1EE10FA7DD282
:10393000189890ED010AB7EEC00AB0EEC00B9FEDEB
:10394000E01B30EE010BB7EEC00B8DED090ADFED89
:10395000DE0A9DED090A0DF0FDF9DFEDDC0AB4EE9B
:10396000E00AF1EE10FA61D8D948007838B99DED37
:10397000130AD84880ED000A0120D54908700121BA
:103980000020FEF7E9FD02210020FEF7E5FD159875
:1039900010B1159803287CD116988030159900EB4A
:1039A000810090ED000A5FED850A20EE200A8DED82
:1039B000050A9DED050A0DF025FA16987030159947
:1039C00000EB8100D0ED000A20EE200A8DED090AFF
:1039D0001698803000EB810090ED000A5FED930AAD
:1039E00020EE200A8DED050A9DED050A0DF00AF97D
:1039F00016987030159900EB8100D0ED000A20EE8A
:103A0000200A8DED080A1698803000EB810090EDB9
:103A1000000A5FEDA00A20EE200A8DED050A9DED5B
:103A2000050A0DF0EFF91698703000E0D8E015990E
:103A300000EB8100D0ED000A20EE200A8DED070A90
:103A40001698803000EB810090ED000A5FEDAF0A20
:103A500020EE200A8DED050A9DED050A0DF0D2F845
:103A600016987030159900EB8100D0ED000A20EE19
:103A7000200A8DED060A9149159801EB8010014648
:103A800005909448D0ED002A90ED002ADDED091A4A
:103A900000E008E09DED081ADDED070A9DED060A3D
:103AA00015980EF09DFE1598012802D01598022851
:103AB0007ED116981030159900EB810090ED000A28
:103AC0005FEDCD0A30EE600A5FEDCE0A20EE200AEF
:103AD0008DED050A9DED050A0DF094F9DDE915104F
:103AE00000EB8100D0ED000A20EE200A8DED090ADE
:103AF0001698103000EB810090ED000A5FEDDC0AB3
:103B000030EE600A5FEDDD0A20EE200A8DED050A39
:103B10009DED050A0DF076F8DDE9151000EB81004A
:103B2000D0ED000A20EE200A8DED080A169810301C
:103B300000EB810090ED000A5FEDEB0A30EE600AC9
:103B40005FEDEC0A20EE200A8DED050A9DED050AD9
:103B50000DF058F9DDE9151000EB8100D0ED000AF9
:103B600020EE200A8DED070A1698103000EB810038
:103B700090ED000A5FEDFA0A30EE600A5FEDFB0A95
:103B800020EE200A8DED050A9DED050A0DF03AF8AC
:103B9000DDE9151000EB8100D0ED000A20EE200ACF
:103BA0008DED060A4549159801EB8010014600E0AD
:103BB00010E005904748D0ED002A90ED002ADDED99
:103BC000091A9DED081ADDED070A9DED060A159804
:103BD0000EF006FE3F4890ED000A8DED130A46E018
:103BE00016989030159900EB8100D0ED000A9DEDFC
:103BF0000D0A70EE800A9DED130AF4EEC00AF1EE94
:103C000010FA34D2189890ED010AB7EEC00AB0EE5F
:103C1000C00B9FED2B1B30EE010BB7EEC00B8DEDF3
:103C2000090ADFED290A9DED090A0DF093F8DFED91
:103C3000270AB4EEE00AF1EE10FA18DD2448007805
:103C400001280BD19DED130A2248D0ED000A30EE79
:103C5000600A80ED000A02201D4908709DED130ADC
:103C60001C48D0ED000A30EE600A8DED130A16985C
:103C70009030159900EB8100D0ED000A9DED0D0A02
:103C800070EE800A9DED130AF4EEC00AF1EE10FA10
:103C90007DD29DED130ADDED0C0AB4EEE00AF1EEE3
:103CA00010FA74D80A480078022870D10121084619
:103CB000FEF752FC022101200EE000006005002406
:103CC00000000000008066400000B4430000B442E1
:103CD0006407002460070024FEF73EFCFE480078DD
:103CE000B0BB002009902DE00998C0B2089000F008
:103CF00007FE099800EB800101EBC000F74901EBDA
:103D0000001090ED150A099800EB40011798001D6E
:103D100000EB810080ED000A099800EB800101EBC7
:103D2000C000EE4901EB001090ED170A099800EB76
:103D300040011798001D00EB810080ED020A0998F0
:103D4000401C099009980328CEDD0120E249087043
:103D50001698B030159900EB810090ED000ADFED68
:103D6000E00A20EE200A8DED070A9DED070A0DF00E
:103D700049F81698A030159900EB8100D0ED000AA3
:103D800020EE200A8DED090A1698B03000E05CE0C4
:103D900000EB810090ED000ADFEDD10A20EE200A51
:103DA0008DED070A9DED070A0CF02CFF1698A03048
:103DB000159900EB8100D0ED000A20EE200A8DED70
:103DC000080AC849159801EB8010079016989030A2
:103DD000159900EB8100D0ED000A9DED0D0A70EE03
:103DE000800A9DED130A30EE600A8DED060A1698E2
:103DF000C03000EB810090ED000A8DED050A01EB6B
:103E000041011798001D00EB810090ED020A8DED35
:103E1000040A159800EB40011798001D00EB810083
:103E200090ED000A8DED030A0799DDED062A9DED60
:103E3000052ADDED091A9DED081ADDED040A9DED58
:103E4000030A15980EF0CCFC84E19DED130ADDED1C
:103E50000C0AB4EEE00AF1EE10FA7CDD9DED130AD7
:103E6000DDED0B0AB4EEE00AF1EE10FA73D89E48CD
:103E7000007802286FD11698B030159900EB8100B8
:103E800090ED000ADFED960A20EE200A8DED030A80
:103E90009DED030A0CF0B6FF1698A030159900EBC3
:103EA0008100D0ED000A20EE208A1698E03000EB69
:103EB000810090ED000ADFED8A0A20EE200A8DEDE8
:103EC000030A9DED030A0CF09DFF1698D03015995A
:103ED00000EB8100D0ED000A00EE808AF0EE000ACF
:103EE00088EE200A8DED090A1698B03000EB8100AB
:103EF00090ED000ADFED7A0A20EE200A8DED030A2C
:103F00009DED030A0CF07EFE1698A030159900EB8B
:103F10008100D0ED000A20EE208A1698E03000EBF8
:103F2000810090ED000ADFED6E0A20EE200A8DED93
:103F3000030A9DED030A0CF065FE1698D030159922
:103F400000EB8100D0ED000A00EE808AF0EE000A5E
:103F500088EE200A01E09BE017E18DED080A169833
:103F6000E03000EB810090ED000ADFED5D0A20EE0D
:103F7000200A8DED030A9DED030A0CF043FF16980D
:103F8000D030159900EB8100D0ED000A20EE200A18
:103F90008DED070A1698E03000EB810090ED000AE5
:103FA000DFED4F0A20EE200A8DED030A9DED030A96
:103FB0000CF028FE1698D030159900EB8100D0ED5A
:103FC000000A20EE200A8DED060A1698B03000EBAC
:103FD000810090ED000ADFED420A20EE200A8DED0F
:103FE000030A9DED030A0CF00DFF1698A0301599F9
:103FF00000EB8100D0ED000A20EE200A8DED050ACD
:104000001698B03000EB810090ED000ADFED340A25
:1040100020EE200A8DED030A9DED030A0CF0F2FD5F
:104020001698A030159900EB8100D0ED000A20EE23
:10403000200A8DED040A2B49159801EB801003909E
:104040009DED130ADDED0C0A30EE600A8DED020ADB
:104050001698F030159900EB810090ED000A8DED77
:10406000010A03999DED024ADDED013A9DED093A01
:10407000DDED082A9FED1D2ADDED071A9DED061ADC
:10408000DDED050A9DED040A1598FDF793FD61E04D
:104090009DED130ADDED0B0AB4EEE00AF1EE10FA25
:1040A00058DD9DED130ADDED0A0AB4EEE00AF1EEEB
:1040B00010FA4FD80C48007802284BD11698E030FF
:1040C000159900EB810090ED000ADFED050A20EE66
:1040D000200A8DED070A0BE065070024046B00241D
:1040E00039FA8E3C6005002464070024CDCCCCBD99
:1040F0009DED070A0CF086FE1698D030159900EB5E
:104100008100D0ED000A20EE200A8DED090A1698F4
:10411000E03000EB8100D0ED000A1FED0F0A20EE29
:10412000800A8DED070A9DED070A0CF06BFD1698CD
:10413000D030159900EB8100D0ED000A20EE200A66
:104140008DED080A1449DDED090A9DED080A159860
:1041500008F036F89DED130ADDED0A0AB4EEE00A28
:10416000F1EE10FA10DB0D48007802280CD1002087
:104170000A4908709FED0A0A0A4880ED000A0020EB
:10418000094908700120109000BF109811B0BDECD3
:10419000028B06B000BD0000600600246407002406
:1041A00000000000600700246507002410B52DED15
:1041B000068BF748B0F9040000EE100AB8EEC00A0A
:1041C000DFEDF40A30EE600AB7EEC00AB0EEC00BC5
:1041D0009FEDF11BB4EEC10BF1EE10FA28D8EC48BC
:1041E000B0F9060000EE100AB8EEC00ADFEDEC0AE6
:1041F00030EE600AB7EEC00AB0EEC00B9FEDE61BD2
:10420000B4EEC10BF1EE10FA12D8E148B0F90A0091
:10421000C0280DD100F05EFB052808D00120FEF774
:1042200089F90020FEF78CF90520FEF76DF957E1BA
:10423000D748B0F9040000EE100AB8EEC00ADFED6E
:10424000D50A30EE600AB7EEC00AB0EEC00B9FEDA3
:10425000D21BB4EEC10BF1EE10FA28D8CC48B0F95D
:10426000060000EE100AB8EEC00ADFEDCE0A30EE0E
:10427000600AB7EEC00AB0EEC00B9FEDC71BB4EEEC
:10428000C10BF1EE10FA12D8C148B0F90A00C028EB
:104290000DD100F01FFB0628C9D00020FEF74AF917
:1042A0000120FEF74DF90620FEF72EF918E1B84877
:1042B000B0F9040000EE100AB8EEC00ADFEDB90A4A
:1042C00030EE600AB7EEC00AB0EEC00B9FEDB21B35
:1042D000B4EEC10BF1EE10FA38D8AD48B0F90600D3
:1042E00000EE100AB8EEC00ADFEDAA0A30EE600A4E
:1042F000B7EEC00AB0EEC00B9FEDA71BB4EEC10B2A
:10430000F1EE10FA22D8A248B0F90A00C0281DD157
:10431000012009F003FC0320FEF7F6F8012009F064
:10432000FDFB0120FEF7F0F89FED9F0A9F4880ED0E
:10433000520A9FED9D0A80ED530A9FED9B0A80ED86
:10434000540A9FED990A80ED550AC9E09048B0F9EA
:10435000040000EE100AB8EEC00ADFED910A30EE5C
:10436000600AB7EEC00AB0EEC00B9FED8B1BB4EE37
:10437000C10BF1EE10FA3BD88548B0F9060000EE0B
:10438000100AB8EEC00ADFED830A30EE600AB7EE1D
:10439000C00AB0EEC00B9FED801BB4EEC10BF1EE76
:1043A00010FA25D87A48B0F90A00C02820D19FED2C
:1043B000800A7E4880ED520A9FED7D0A80ED530A07
:1043C0009FED7B0A80ED540A9FED790A80ED550A36
:1043D000012009F0A3FB0320FEF796F8012009F065
:1043E0009DFB0120FEF790F80120FEF7A3F877E08F
:1043F0006748B0F9040000EE100AB8EEC00ADFED1D
:10440000650A30EE600AB7EEC00AB0EEC00B9FED51
:10441000621BB4EEC10BF1EE10FA25D85C48B0F97E
:10442000060000EE100AB8EEC00ADFED5A0A30EEC0
:10443000600AB7EEC00AB0EEC00B9FED571BB4EE9A
:10444000C10BF1EE10FA0FD85148B0F90A00C0289C
:104450000AD100F03FFA012842D00020FEF770F8A0
:104460000120FEF751F83BE04948B0F9040000EEA6
:10447000100AB8EEC00ADFED470A30EE600AB7EE68
:10448000C00AB0EEC00B9FED441BB4EEC10BF1EEC1
:1044900010FA25D83E48B0F9060000EE100AB8EE32
:1044A000C00ADFED3C0A30EE600AB7EEC00AB0EE9B
:1044B000C00B9FED391BB4EEC10BF1EE10FA0FD813
:1044C0003348B0F90A00B0F5E06F09D100F002FA04
:1044D000042805D00020FEF733F80420FEF714F876
:1044E0002B48B0F90800C02823D100F0F9F90128C1
:1044F0001FD19FED300A304880ED080A9FED2F0A4A
:1045000080ED0B0A9FED2E0A80ED090A9FED2D0A22
:1045100080ED070A9FED2C0A80ED920A9FED2B0A91
:1045200080EDA20A0020FEF705F80020FEF708F84B
:1045300081E01748B0F90800B0F5787F52D100F05B
:10454000CFF901284ED12248007801284AD09FEDAA
:10455000210A194880ED080A9FED1F0A80ED0B0A19
:104560009FED170A80ED090A9FED160A80ED070AF4
:104570009FED1A0A80ED920A9FED190A80EDA20ABA
:104580000120FDF7D7FF0120FDF7DAFF53E000001F
:10459000A472002400007A4400000000000044409F
:1045A000000048430000E144CDCC4C3EB001002463
:1045B0003D0A173EEC51383D6C1C0024CDCC4C3FDD
:1045C000000000000AD7A33DBC74933B0AD7233DEB
:1045D00066070024CDCC4C3D9A99993E0AD7233BDF
:1045E0008FC2F53C8248B0F90800B0F5E06F22D1E7
:1045F00000F076F901281ED19FED7E0A7E4880EDFD
:10460000080A9FED7E0A80ED0B0A1FED130A80ED6C
:10461000090A9FED7B0A80ED070A9FED7A0A80ED7B
:10462000920A9FED790A80EDA20A0120FDF782FF30
:104630000020FDF785FF6E48B0F90C00B0F5E06F83
:1046400007D100F04DF9042803D0012009F0A4FBA4
:104650000BE06748B0F90C00C02806D100F040F923
:10466000042802D0002009F097FB6148B0F900004F
:10467000A0F57A7000EE100AB8EEC0AA5C48B0F956
:104680000200A0F57A7000EE100AF8EEC08A6AEE19
:104690000A0A48EEA80AB0EE600A0CF07DFC5FED55
:1046A000400AB4EEE00AF1EE10FA0ED21FED3C0A19
:1046B000564880ED070A90ED000A80ED060A1FEDCE
:1046C000400A4D4880ED070A8FE04948B0F90800DC
:1046D000C02806D14E4890ED000A474880ED070AF1
:1046E00018E04348B0F90800B0F5787F06D1484893
:1046F00090ED010A404880ED070A0BE03C48B0F914
:104700000800B0F5E06F05D1414890ED020A3A4843
:1047100080ED070AF0EE680AB1EE4A0A0CF046F99D
:10472000DFED3C0A20EE208AB7EEC80AB0EEC00BDF
:10473000B2EE0E1BB4EEC10BF1EE10FA03D89FEDF2
:10474000360AB0EE408A314890ED070AB5EEC00A4D
:10475000F1EE10FA07D190ED060A30EE080A80ED6E
:10476000060A80ED078A294890ED070AB4EEC80AC8
:10477000F1EE10FA0CD290ED070A38EE409A9FED58
:10478000270A38EE000AD0ED070A70EE609A0CE0B6
:104790001E4890ED070A38EE409A9FED210A38EE48
:1047A000000AD0ED070A70EE609AB7EEC90AB0EEC3
:1047B000C00BB7EEE91AB0EEC11BB4EEC10BF1EEBF
:1047C00010FA07DD114890ED060A30EE290A80ED57
:1047D000060A06E00D4890ED060A30EE090A80ED63
:1047E000060A0A4880ED078A00BFBDEC068B10BDA3
:1047F000A47200240AD7A33C6C1C0024CDCCCC3E70
:104800000AD7233C6F12033A6F12033C446E002414
:10481000702000241B2F654277CC2B320000B4C3DC
:104820000000B44300BFFFF7C1FC01200EF04AFABC
:10483000F9E7000010B52248007828B90120204986
:104840000870FEF71DFA2AE01D480078012826D1DD
:10485000FDF754FE1A490861084600690021194B0A
:10486000C01A89410CDB00201549087008464068D1
:10487000401C4860084600691946401A1049086102
:1048800003F0ACFC00EE100AF8EE400A0C4890ED84
:10489000040AB8EE400A80EE201A80ED021A084899
:1048A00090ED020AD0ED010AF8EE600AB2EE041AA9
:1048B00000EE810A80ED030A90ED030A10BD0000AE
:1048C0005871002400286BEE01480068C07B7047D7
:1048D000AC01002401480068407B7047AC01002413
:1048E00001480068007B7047AC01002410B5FFF759
:1048F000A1FF10BD014890F830007047046B002400
:1049000010B50446032C7DDC002C7BDB34B1012C7C
:1049100034D0022C63D0032C2FD196E0654890ED63
:10492000160A654880ED110A624890ED080A62484F
:1049300080ED120A5F4890ED150A5F4880ED130A7A
:104940005C4890ED070A5C4880ED140A00F14402CF
:1049500000F1340108F022FC574A343202F1200100
:10496000554807F04FFEFFF7C5FF30B9524A3432C1
:1049700002F12001504807F083FD98E04D4890ED8A
:10498000320A4D4880ED450A4A4890ED240A4A48CB
:1049900080ED460A474890ED310A474880ED470AC6
:1049A000444890ED230A444880ED480A00F58A7295
:1049B00000F58271D03008F0F1FB404A02F120018D
:1049C000A1F1540007F01EFEFFF794FF30B93B4AF7
:1049D00002F12001A1F1540007F052FD67E03548D3
:1049E00090ED4E0A344880ED790A324890ED400A45
:1049F000314880ED7A0A2F4890ED4D0A2E4880ED1F
:104A00007B0A00E054E02B4890ED3F0A2A4880EDF5
:104A10007C0A00F5F27200F5EA7100F5D07008F03A
:104A2000BDFB264AD03202F12001A1F1540007F06B
:104A3000E9FDFFF75FFF38B9204AD03202F12001CB
:104A4000A1F1540007F01CFD31E01A4890ED6A0A0C
:104A5000194880EDAD0A174890ED5C0A164880EDC4
:104A6000AE0A144890ED690A134880EDAF0A114868
:104A700090ED5B0A104880EDB00A00F52D7200F54C
:104A8000297100F51C7008F089FB0D4A02F1200124
:104A9000A1F1540007F0B6FDFFF72CFF30B9084A2A
:104AA00002F12001A1F1540007F0EAFC00BF00BFB1
:104AB00010BD000000750024046B0024086C002465
:104AC000A86D00242DE9F041044601F03FFF804627
:104AD00014B90120BDE8F08194F83500022808D00F
:104AE0008020606500BF002084F8340000BF0120F2
:104AF000F0E7FE492068884249D0FC491831206817
:104B0000884244D0F9493031206888423FD0F74983
:104B10004831206888423AD0F449603120688842A0
:104B200035D0F24978312068884230D0EF49903151
:104B3000206888422BD0ED49A8312068884226D0D1
:104B4000EB492068884222D0E94918312068884220
:104B50001DD0E74930312068884218D0E4494831F7
:104B60002068884213D0E2496031206888420ED024
:104B7000DF4978312068884209D0DD4990312068CA
:104B8000884204D0DA49A8312068884201D1012046
:104B900000E0002068B12068006820F01E00216855
:104BA00008602068406920F080002168486125681D
:104BB00006E02068006820F00E0021680860256883
:104BC000CA492068884270D0C84918312068884294
:104BD0006BD0C64930312068884266D0C34948311D
:104BE0002068884261D0C1496031206888425CD029
:104BF000BE4978312068884257D0BC49903120683E
:104C0000884252D0B949A831206888424DD0B8496D
:104C10002068884249D0B64918312068884244D07B
:104C2000B3493031206888423FD0B14948312068CB
:104C300088423AD0AE4960312068884235D0AC49CC
:104C400078312068884230D0A94990312068884264
:104C50002BD0A749A8312068884226D0A5492068D2
:104C6000884222D0A3491431206888421DD0A1492E
:104C700028312068884218D09E493C3120688842FB
:104C800013D09C495031206888420ED09949643134
:104C90002068884209D0974978312068884204D03A
:104CA00094498C312068884201D1012000E0002025
:104CB00028B1206E006820F48070216E08608B4956
:104CC0002068884249D0894918312068884244D0F8
:104CD00086493031206888423FD084494831206875
:104CE00088423AD0814960312068884235D07F4976
:104CF00078312068884230D07C49903120688842E1
:104D00002BD07A49A8312068884226D0784920687B
:104D1000884222D076491831206888421DD07449D3
:104D200030312068884218D0714948312068884263
:104D300013D06F496031206888420ED06C497831B9
:104D40002068884209D06A4990312068884204D09E
:104D50006749A8312068884206D12068006820F0A1
:104D600001002168086005E02068006820F001006B
:104D70002168086011E001F0E9FDA0EB08000528BA
:104D80000BD920206065032084F8350000BF002087
:104D900084F8340000BF01209CE6286800F0010080
:104DA0000028E8D151492068884249D04F4918313C
:104DB0002068884244D04D493031206888423FD035
:104DC0004A494831206888423AD0484960312068D1
:104DD000884235D0454978312068884230D04349EF
:104DE0009031206888422BD04049A8312068884201
:104DF00026D03F492068884222D03D49183120689A
:104E000088421DD03A4930312068884218D038494C
:104E100048312068884213D0354960312068884283
:104E20000ED0334978312068884209D0304990311A
:104E30002068884204D02E49A8312068884201D1D8
:104E4000012000E0002040B1A66D94F85C0000F065
:104E50001F013F208840B06007E0A76D94F85C0018
:104E600000F01F01012088407860204920688842B6
:104E700076D01E4918312068884271D01B493031E4
:104E8000206888426CD0194948312068884267D030
:104E9000164960312068884262D014497831206810
:104EA00088425DD0114990312068884258D00F491E
:104EB000A8312068884253D00D49206888424FD0DD
:104EC0000B491831206888424AD00949303120689E
:104ED000884245D0064948312068884240D004497C
:104EE0006031206888423BD0014905E01000024053
:104EF00010040240085402587831206888422FD0AC
:104F00002549206888422BD02349183120688842DF
:104F100026D022492068884222D0204914312068B6
:104F200088421DD01D4928312068884218D01B496D
:104F30003C312068884213D018495031206888429B
:104F40000ED0164964312068884209D0134978315F
:104F50002068884204D011498C312068884201D1F0
:104F6000012000E0002068B1D4E919104860E06E2B
:104F700040B1E06E006820F48070E16E0860D4E912
:104F80001C104860012084F8350000BF002084F820
:104F9000340000BF00BF9DE5A00402400854025841
:104FA00070B504460CB9012070BD94F83500022894
:104FB00003D0802060650120F6E7DC492068884244
:104FC00049D0DA4918312068884244D0D749303175
:104FD000206888423FD0D5494831206888423AD07D
:104FE000D24960312068884235D0D0497831206874
:104FF000884230D0CD499031206888422BD0CB49AF
:10500000A8312068884226D0C9492068884222D029
:10501000C7491831206888421DD0C5493031206801
:10502000884218D0C24948312068884213D0C0490C
:105030006031206888420ED0BD49783120688842AE
:1050400009D0BB4990312068884204D0B849A831C2
:105050002068884201D1012000E00020F0B3042044
:1050600084F83500B149206888424BD0AF491831E7
:105070002068884246D0AD4930312068884241D00E
:10508000AA494831206888423CD0A849603120684C
:10509000884237D0A54978312068884232D0A34968
:1050A0009031206888422DD0A049A83120688842DC
:1050B00028D09F492068884224D09D491831206813
:1050C00088421FD09A493031206888421AD09849C6
:1050D00048312068884215D0954900E020E06031D1
:1050E000206888420ED0924978312068884209D0E1
:1050F0008F4990312068884204D08D49A8312068BA
:10510000884206D12068006820F00100216808600C
:1051100009E12068006820F001002168086002E1D0
:105120002068006820F00E00216808607F49206830
:10513000884249D07D4918312068884244D07B4953
:105140003031206888423FD0784948312068884211
:105150003AD0764960312068884235D07349783139
:105160002068884230D071499031206888422BD025
:105170006E49A8312068884226D06D49206888424F
:1051800022D06B491831206888421DD068493031DF
:105190002068884218D0664948312068884213D078
:1051A00063496031206888420ED0614978312068B7
:1051B000884209D05E4990312068884204D05C4919
:1051C000A8312068884206D12068006820F00100DC
:1051D0002168086005E02068006820F0010021686F
:1051E000086052492068884270D0504918312068C0
:1051F00088426BD04D4930312068884266D04B4997
:1052000048312068884261D048496031206888422E
:105210005CD0464978312068884257D04349903164
:105220002068884252D04149A831206888424DD038
:105230003F492068884249D03D491831206888425A
:1052400044D03B493031206888423FD0384948310A
:10525000206888423AD0364960312068884235D08B
:10526000334978312068884230D031499031206804
:1052700088422BD02E49A8312068884226D02D495B
:105280002068884222D02B491431206888421DD0E2
:10529000284928312068884218D026493C312068A6
:1052A000884213D023495031206888420ED02149CA
:1052B00064312068884209D01E49783120688842CC
:1052C00004D01C498C312068884201D1012000E0C3
:1052D0000020D8B1206E006820F48070216E086034
:1052E000A56D94F85C0000F01F0101208840686003
:1052F000D4E919104860E06E40B1E06E006820F417
:105300008070E16E0860D4E91C104860012084F8C8
:10531000350000BF002084F8340000BF206D10B1BC
:105320002046216D884700203EE600001000024024
:1053300010040240085402580146486D70470000AE
:105340002DE9F84F044600200090FE4800684FF415
:105350001651B0FBF1FAA66DD4F858803768D8F82A
:105360000090F9492068884249D0F74918312068EF
:10537000884244D0F4493031206888423FD0F24915
:105380004831206888423AD0EF496031206888422D
:1053900035D0ED4978312068884230D0EA499031E3
:1053A000206888422BD0E849A8312068884226D05E
:1053B000E6492068884222D0E449183120688842B2
:1053C0001DD0E24930312068884218D0DF49483189
:1053D0002068884213D0DD496031206888420ED0B1
:1053E000DA4978312068884209D0D849903120685C
:1053F000884204D0D549A8312068884201D10120D3
:1054000000E0002000287DD094F85C0000F01F012F
:10541000082088403840002868D0CB49206888425E
:1054200049D0C94918312068884244D0C649303132
:10543000206888423FD0C4494831206888423AD029
:10544000C14960312068884235D0BF497831206831
:10545000884230D0BC499031206888422BD0BA496C
:10546000A8312068884226D0B8492068884222D0D6
:10547000B6491831206888421DD0B44930312068BF
:10548000884218D0B14948312068884213D0AF49CA
:105490006031206888420ED0AC497831206888425B
:1054A00009D0AA4990312068884204D0A749A83180
:1054B0002068884204D12068006800F0040003E0FE
:1054C0002068006800F0080080B12068006820F0C3
:1054D00004002168086094F85C0000F01F010820B7
:1054E0008840B060606D40F00100606594F85C0039
:1054F00000F01F01012088403840E8B3924920683D
:10550000884200E0B7E24BD08F49183120688842CA
:1055100046D08D4930312068884241D08A4948318F
:10552000206888423CD0884960312068884237D062
:10553000854978312068884232D08349903120688B
:1055400088422DD08049A8312068884228D07F49E0
:105550002068884224D07D491831206888421FD0B5
:105560007A493031206888421AD078494831206819
:10557000884215D0754900E026E0603120688842F5
:105580000ED0724978312068884209D06F49903135
:105590002068884204D06D49A8312068884204D12F
:1055A0002068406900F0800002E020680068002068
:1055B00050B194F85C0000F01F0101208840B060F9
:1055C000606D40F00200606594F85C0000F01F011F
:1055D000042088403840E8B35B49206888424BD0BB
:1055E000594918312068884246D0574930312068DF
:1055F000884241D054494831206888423CD05249C1
:1056000060312068884237D04F497831206888421D
:1056100032D04D499031206888422DD04A49A83176
:105620002068884228D049492068884224D04749C8
:105630001831206888421FD04449303120688842A0
:105640001AD0424948312068884215D03F4960311C
:10565000206800E024E088420ED03C497831206880
:10566000884209D0394990312068884204D03749AE
:10567000A8312068884204D12068006800F0020048
:1056800002E020680068002050B194F85C0000F04F
:105690001F0104208840B060606D40F00400606528
:1056A00094F85C0000F01F01102088403840E8B3F7
:1056B00025492068884251D0234918312068884202
:1056C0004CD0214930312068884247D01E494831AA
:1056D0002068884242D01C496031206888423DD011
:1056E000194978312068884238D0174990312068AC
:1056F000884233D01449A831206888422ED01349FB
:10570000206888422AD0114918312068884225D063
:105710000E4930312068884220D00C494831206839
:1057200088421BD009496031206800E04DE0884282
:1057300014D006497831206888420FD0034990314F
:10574000206805E0380000241000024010040240E8
:10575000884203D0FE492068884204D1206800684E
:1057600000F0080003E02068006800F0040060B367
:1057700094F85C0000F01F0110208840B0602068A1
:10578000006800F4802080B12068006800F40020E8
:1057900028B9206CC8B12046216C884715E0A06C60
:1057A00098B12046A16C88470FE02068006800F49B
:1057B000807028B92068006820F00800216808601F
:1057C000206C10B12046216C884794F85C0000F0F2
:1057D0001F0120208840384000287DD0DD49206806
:1057E000884249D0DB4918312068884244D0D949E1
:1057F0003031206888423FD0D649483120688842FD
:105800003AD0D44960312068884235D0D1497831C6
:105810002068884230D0CF499031206888422BD010
:10582000CC49A8312068884226D0C949A8392068C7
:10583000884221D0C6499039206888421CD0C4498A
:1058400078392068884217D0C14960392068884279
:1058500012D0BF494839206888420DD0BC49303940
:105860002068884208D0BA4918392068884203D095
:10587000B7492068884204D12068006800F0100011
:1058800003E02068006800F0020028B394F85C0090
:1058900000F01F0120208840B06094F835000428F3
:1058A0002DD12068006820F016002168086020686B
:1058B000406920F0800021684861206C08B9A06C24
:1058C00028B12068006820F008002168086094F87A
:1058D0005C0000F01F0100E03FE03F208840B06026
:1058E000012084F8350000BF002084F8340000BF98
:1058F000206D10B12046216D8847BDE8F88F2068E3
:10590000006800F4802080B12068006800F4002066
:1059100028B9606C08B32046616C88471DE0E06BD5
:10592000D8B12046E16B884717E02068006800F492
:10593000807068B92068006820F010002168086055
:10594000012084F8350000BF002084F8340000BF37
:10595000E06B10B12046E16B8847606D00287AD07B
:10596000606D00F00100E8B3042084F83500794947
:10597000206888424BD0774918312068884246D049
:10598000744930312068884241D0724948312068DA
:1059900088423CD06F4960312068884237D06D49D9
:1059A00078312068884232D06A4990312068884234
:1059B0002DD06849A8312068884228D06449A83988
:1059C0002068884223D062499039206888421ED0DE
:1059D0005F4978392068884219D05D49603920686C
:1059E000884200E040E012D0594948392068884296
:1059F0000DD0574930392068884208D054491839A9
:105A00002068884203D052492068884206D1206825
:105A1000006820F001002168086005E02068006847
:105A200020F001002168086000BF0098401C009031
:105A3000504500D905E02068006800F0010000280A
:105A4000F3D100BF2068006800F0010020B10320FE
:105A500084F8350003E00DE0012084F8350000BF34
:105A6000002084F8340000BFE06C002802D02046FB
:105A7000E16C8847D9E138492068884222D036490C
:105A80001431206888421DD033492831206888426B
:105A900018D031493C312068884213D02E4950310A
:105AA000206888420ED02C4964312068884209D091
:105AB000294978312068884204D027498C312068F0
:105AC000884201D1012000E000200028D2D02068C7
:105AD000056894F85C0000F01F010420884000EA8B
